:020000040800F2
:10000000005000201D1800081B18000819180008CF
:100010001918000819180008191800080000000035
:100020000000000000000000000000001B18000895
:100030001B180008000000001B1800081B1800080F
:1000400019180008191800081918000819180008CC
:1000500019180008191800081918000819180008BC
:1000600019180008191800081918000819180008AC
:10007000191800081918000819180008191800089C
:10008000191800081918000819180008191800088C
:10009000191800081918000819180008191800087C
:1000A000191800081918000819180008191800086C
:1000B000191800081918000819180008191800085C
:1000C000191800081918000819180008191800084C
:1000D000191800081918000819180008191800083C
:1000E000191800081918000819180008191800082C
:1000F000191800081918000819180008191800081C
:10010000191800081918000819180008191800080B
:1001100019180008191800081918000819180008FB
:1001200019180008191800081918000819180008EB
:1001300019180008191800081918000819180008DB
:1001400019180008191800081918000819180008CB
:1001500080B594B000AF00F02FFD00F053FD00F02B
:1001600097FD00F0B7FD00F0E5FD394800F0BDF95E
:1001700007F1080241233749374800F0B5F807F185
:100180000803184600F00EFB344800F00BFB00F0AB
:1001900021FB0023FB6450E00122FB6C02FA03F315
:1001A0009BB219462E4801F019F80346002B14BFE4
:1001B00001230023DBB287F84B302A4AFB6C13443F
:1001C0001B78012B30D197F84B30002B2CD100231A
:1001D0007B6002E07B6801337B607B6847F22F52D3
:1001E0009342F7DD0122FB6C02FA03F39BB219463E
:1001F0001B4800F0F3FF0346002B15D11A4B1B7868
:10020000032B11D8FB6CDBB2174A12780133D9B239
:10021000164B9954144B1B780133DAB2124B1A70F7
:100220004CF2503000F0CEFD0E4AFB6C134497F8B0
:100230004B201A70FB6C0133FB64FB6C042BABDDB1
:10024000094B1B78042BA2D100F0DAFD9FE700BF19
:1002500004070020147F0008347F0008387F00085E
:10026000000801401C000020E4060020E0060020F9
:1002700080B483B000AF0346FB71FB792F2B05D907
:10028000FB79392B02D8FB79303B0AE0FB79402B14
:1002900005D9FB79462B02D8FB79373B01E04FF0BB
:1002A000FF3318460C37BD4680BC704780B485B01C
:1002B00000AF786039600023FB730023BB6009E066
:1002C0007A68BB6813441A78FB7B5340FB73BB68A6
:1002D0000133BB60BA683B689A42F1D3FB7B184696
:1002E0001437BD4680BC704780B5ACB002AFF86033
:1002F000B9607A603B60F86801F0CEFCC7F8A000F6
:10030000B86801F0C9FCC7F89C00D7F8A030032BEF
:1003100002D04FF0FF337BE0D7F89C30302B02D96E
:100320004FF0FF3374E00023C7F8A4301CE0BA6834
:10033000D7F8A43013441B781F2B0DD9BA68D7F80F
:10034000A43013441B787E2B06D8BA68D7F8A430A3
:1003500013441B78402B02D14FF0FF3358E0D7F8FD
:10036000A4300133C7F8A430D7F8A420D7F89C30C4
:100370009A42DCD307F15400BB680093FB68264A1D
:10038000352101F043FC07F15403184601F084FCC9
:10039000C7F8980007F1100007F154030093D7F84D
:1003A00098301E4A412101F031FCC7F89400D7F87B
:1003B0009430002B03DBD7F89430402B02D94FF058
:1003C000FF3325E0D7F8942007F1100311461846B3
:1003D000FFF76CFF034687F8933097F8933007F1E7
:1003E0001002009313460E4A3968786801F00EFC3B
:1003F000C7F88C00D7F88C30002B04DBD7F88C3092
:100400003A689A4202D84FF0FF3301E0D7F88C30B7
:100410001846A837BD4680BD3C7F0008447F0008D1
:100420004C7F000880B58AB000AF78603960002347
:100430007B6200233B620CE07A683B6A13441B78C2
:100440003A2B03D17A683B6A13447B623B6A0133DF
:100450003B623A6A3B689A42EED37B6A002B02D138
:100460004FF0FF333DE07B6ADA1C79683B680B4450
:100470009A4202D04FF0FF3333E07B6A0133FB61D5
:10048000FB691B781846FFF7F3FEB861FB6901337F
:100490001B781846FFF7ECFE7861BB69002B02DB86
:1004A0007B69002B02DA4FF0FF331AE0BB695BB2C5
:1004B0001B015AB27B695BB213435BB2FB747A6A6D
:1004C0007B68D31AFB60F9687868FFF7EFFE034694
:1004D000FB72FA7AFB7C9A4201D1002301E04FF0D3
:1004E000FF3318462837BD4680BD80B582B000AFC7
:1004F00078607B6800221A707B6800225A707B68E3
:1005000000229A707B68002283F838207B680022E2
:1005100083F839207B68033335220021184601F027
:1005200007FA00BF0837BD4680BD80B59AB002AF5C
:10053000F8600B467A60FB72964B1B680133954A54
:100540001360FB7A0D2B01D100231FE1FB681B78A0
:10055000082B00F2FB8001A252F823F0810500086D
:1005600097050008BD050008EB050008FB0500081D
:100570004D0600085D06000883060008B306000863
:10058000FB7A402B40F0E180F868FFF7AEFFFB6894
:1005900001221A70D9E0FB7A1846FFF769FE386528
:1005A0003B6D002BC0F2D4803B6DDBB21B01DAB295
:1005B000FB685A70FB6802221A70C7E0FB7A184683
:1005C000FFF756FE78657B6D002BC0F2C380FB6899
:1005D0005B785AB27B6D5BB213435BB2DAB2FB68F5
:1005E0005A70FB6803221A70B0E0FB7A3A2B40F095
:1005F000B380FB6804221A70A8E0FB689B78332B59
:1006000000F2AC80FB689A78FB685B789A4280F0D5
:10061000A580FB689B785A1CD1B2FA6891701A4683
:10062000FB681344FA7ADA70FB689A78FB685B78A7
:100630009A4209D1FB689B781A46FB681344002252
:10064000DA70FB6805221A7000BF7FE0FB7A3A2B54
:1006500040F08680FB6806221A7077E0FB7A184625
:10066000FFF706FEB865BB6D002B7BDBBB6DDBB215
:100670001B01DAB2FB6883F83920FB6807221A7085
:1006800064E0FB7A1846FFF7F3FDF865FB6D002B7D
:100690006ADBFB6893F839305AB2FB6D5BB21343E7
:1006A0005BB2DAB2FB6883F83820FB6808221A7064
:1006B0004CE0FB7A0A2B59D1FB685B781946FB6842
:1006C0000333FA6892F8382007F110000192009382
:1006D0000B46314A402101F099FA07F11003184600
:1006E00001F0DAFA024607F1100311461846FFF747
:1006F00099FE0346002B39D1FB685B78042B35D972
:10070000FB689B793A2B31D17868FB68033303226D
:10071000194601F0D7F87B680022DA707B68181D53
:10072000FB68033304333022194601F0CBF87B68B1
:10073000002283F83420194B1B680133174A1360D9
:10074000F868FFF7D2FE012320E000BF00231DE080
:1007500000BF0CE000BF0AE000BF08E000BF06E0F9
:1007600000BF04E000BF02E000BF00E000BF0C4B90
:100770001B6801330A4A1360F868FFF7B6FEFB7A7C
:10078000402B02D1FB6801221A7002231846603701
:10079000BD4680BDF4060020587F0008F806002002
:1007A000FC06002080B582B000AF786007E07B686F
:1007B0005A1C7A601B781946054801F016F87B68C8
:1007C0001B78002BF3D100BF00BF0837BD4680BDAA
:1007D0000038014080B58EB000AF294B1B6803F094
:1007E0002003002B48D0264801F00EF8034687F876
:1007F0003730244B1B680133224A136097F8373097
:100800000D2B08D10D211E4800F0EFFF0A211C48D6
:1008100000F0EBFF06E097F837309BB21946184816
:1008200000F0E3FF3A4697F8373019461648FFF7CD
:100830007CFE034687F8363097F83630012B07D117
:100840001248FFF7AFFF3B46184600F02BF814E0C4
:1008500097F83630022B10D10D48FFF7A3FF412344
:100860000C4A0D490D48FFF73FFD0A48FFF79AFF74
:100870000B48FFF797FF00E000BF3837BD4680BD4B
:1008800000380140F006002004070020687F0008BF
:10089000947F000840070020B07F0008C07F000858
:1008A000387F0008F0B5ADB006AF78607B68A4492A
:1008B000184601F08DF80346002B17D17B680433EE
:1008C000A049184601F084F80346002B0ED19E4B38
:1008D0001B6801339C4A136041239C4A9C499D48F4
:1008E000FFF702FD9948FFF75DFF26E17B68944919
:1008F000184601F06DF80346002B35D17B680433B0
:100900009549184601F064F80346002B2CD18E4B14
:100910001B6801338C4A13608B4B1B683B608F4B09
:100920001B688F4A12688F4909688F4800688F4C8E
:1009300024688F4D2D6807F10C06059504940390EB
:100940000291019200933B688A4A8021304601F06F
:100950005DF907F10C0141237C4A8748FFF7C4FC8D
:100960007A48FFF71FFFE8E07B687549184601F0F9
:100970002FF80346002B47D17B6804337F49184684
:1009800001F026F80346002B0ED14FF400517C48AD
:1009900000F021FC41236D4A7A496E48FFF7A4FC20
:1009A0006A48FFF7FFFEC8E07B68043376491846C3
:1009B00001F00EF80346002B0ED14FF400517048A1
:1009C00000F007FC4123614A6E496248FFF78CFC46
:1009D0005E48FFF7E7FEB0E07B6804336B491846DA
:1009E00000F0F6FF0346002B0ED14FF4005164488F
:1009F00000F0F7FB4123554A62495648FFF774FC63
:100A00005248FFF7CFFE98E07B686149184600F036
:100A1000DFFF0346002B40F082804B4B1B68013305
:100A2000494A13607B680433184601F035F90346E0
:100A3000042B09D04123454A56495748FFF754FC37
:100A40004248FFF7AFFE78E04FF0FF33C7F894302D
:100A50000023C7F8903010E0504AD7F89030134484
:100A60001B78002B04D1D7F89030C7F8943008E0F9
:100A7000D7F890300133C7F89030D7F89030042B76
:100A8000EADDD7F89430B3F1FF3F3BD00023C7F83D
:100A90008C3016E07A68D7F88C30134404331B7816
:100AA000303BD9B23E4AD7F894309B001A44D7F86D
:100AB0008C3013440A461A70D7F88C300133C7F8CB
:100AC0008C30D7F88C30032BE4DD344AD7F89430DF
:100AD000134401221A70D7F89430013307F10C0047
:100AE000304A202101F092F807F10C014123174A06
:100AF0001848FFF7F9FB1548FFF754FE2A4800F0A5
:100B000061F91AE04123114A28492348FFF7ECFB19
:100B10000E48FFF747FE264800F054F90DE00F4B52
:100B20001B6801330D4A13604123084A21491A48C2
:100B3000FFF7DAFB0548FFF735FE9C37BD46F0BDF1
:100B4000C47F0008C87F0008E80600204007002096
:100B5000D07F0008347F0008D87F0008EC06002012
:100B6000F0060020F4060020F8060020FC06002015
:100B700000070020E07F00081480000818800008AB
:100B80000010014020800008288000083080000804
:100B90003C80000840800008C07F0008140000204E
:100BA0000000002058800008F04902006C80000816
:100BB00060AE0A008480000880B500AF104800F0E5
:100BC0000DFC40F2023000F075FC40F2033000F002
:100BD00071FC4FF4417000F06DFC4FF4407000F078
:100BE00069FC40F2813000F065FC40F2093000F011
:100BF00061FC40F20E3000F05DFC00BF80BD00BF24
:100C00001C81000880B500AF1F23022200211D486F
:100C100000F0B0FA1F211B4800F0DBFA802300220D
:100C20000021184800F0A6FA0323022203211648E7
:100C300000F0A0FA4FF4F84300220321124800F01C
:100C400099FA4FF4F841104800F0C5FA4FF40073D8
:100C5000022203210B4800F08DFA4FF48063012239
:100C60000021084800F086FA4FF4005300220321C7
:100C7000064800F07FFA4FF40051044800F0A9FA4A
:100C800000BF80BD00080140000C01400010014081
:100C900080B500AF4FF4E1310D4800F075FD08213B
:100CA0000B4800F07CFD0021094800F081FD0C217B
:100CB000074800F089FD0021054800F07FFD002174
:100CC000034800F087FD024800F08AFD00BF80BDA8
:100CD0000038014080B582B000AF022000F02AFB4E
:100CE000134800F00EFA07233B713B1D1A46012101
:100CF0000F4800F011FA072207210D4800F0E7F92C
:100D00000B4800F0B7F900233B6002E03B68013379
:100D10003B603B68B3F5FA5FF8DB054800F0BAF9D1
:100D2000034800F0CAF900BF0837BD4680BD00BFC8
:100D30000024014080B500AF40F2012000F0C7FB65
:100D40000023002200211E4800F0D2FB47211C484E
:100D500000F0DCFB40F2E731194800F0D9FB042138
:100D6000174800F0DCFC06220421154800F0D2FBF5
:100D70000421134800F094FC00220421104800F0E4
:100D8000F3FC04210E4800F0A5FC06210C4800F0FD
:100D9000C6FC062206210A4800F0BCFB06210848D2
:100DA00000F07EFC00220621054800F0DDFC062153
:100DB000034800F08FFC024800F0A3FB00BF80BD99
:100DC0000004004080B584B000AF78604FF4C041AB
:100DD0000A4800F0FEF90023FB6002E0FB680133E3
:100DE000FB60FB687A689A42F8D84FF4C041034828
:100DF00000F0F1F900BF1037BD4680BD000C014086
:100E000080B586B000AF4FF0FF337B6100233B61BC
:100E100029E00123FB730023BB6012E02C4ABB686E
:100E200013441A782B493B699B001944BB680B4457
:100E30001B789A4202D00023FB7305E0BB680133A4
:100E4000BB60BB68032BE9DDFB7B002B08D0224A8B
:100E50003B6913441B78012B02D13B697B6105E0A0
:100E60003B6901333B613B69042BD2DD7B69B3F104
:100E7000FF3F13D01948FFF7A5FF00233B6002E0B6
:100E80003B6801333B603B68154A9342F8DD1348E9
:100E9000FFF798FF786900F029F802E01148FFF7A2
:100EA00091FF114B00221A7000237B6007E0084A73
:100EB0007B68134400221A707B6801337B607B6877
:100EC000032BF4DD00BF00BF1837BD4680BD00BF57
:100ED000E00600200000002014000020A086010091
:100EE0002FE6020080841E00E406002080B590B04A
:100EF00000AF78607B68013307F11000524A20216F
:100F000000F084FE07F110014123504A5048FFF7DA
:100F1000EBF94E48FFF746FC4E48FFF743FC7B6871
:100F2000002B02D07B68012B49D14B4800F0AAF876
:100F300000BF494800F0EAF8034683F00103DBB242
:100F4000002BF6D1444800F0E5F80346FB86FB8E03
:100F50004FF47A7203FB02F2404BA3FB0213D21A46
:100F600052081344DB0A3B637B68002B04D13A6BC5
:100F700004213B4800F0F8FB7B68012B04D13A6B5D
:100F80000621374800F0F0FB0023FB6002E0FB681D
:100F90000133FB60FB68334A9342F8DD7B68002B2A
:100FA00004D1002204212E4800F0DEFB7B68012BD7
:100FB0002ED1002206212A4800F0D6FB28E000238B
:100FC000FB877B68022B02D14FF48063FB877B6831
:100FD000032B02D14FF40063FB877B68042B02D103
:100FE0004FF48053FB87FB8F19461F4800F0F1F840
:100FF0000023BB6002E0BB680133BB60BB68194AD9
:101000009342F8DDFB8F1946174800F0E4F800E042
:1010100000BF164A7B68134400221A700023BB638A
:101020000AE0134A7B689B001A44BB6B13440022FE
:101030001A70BB6B0133BB63BB6B032BF1DD00BFCD
:1010400000BF4037BD4680BD9880000840070020A3
:10105000347F0008387F000800240140010110009F
:10106000000400403F548900000C0140140000209F
:10107000000000208368DB075EBF836843F0010344
:10108000836070478368DB0742BF836843F00103D6
:1010900083607047836800F1080243F008038360AF
:1010A00013681B07FCD47047836843F00403836014
:1010B00070478068C0F38000704708B50246FFF7AC
:1010C000F3FF1046FFF7F5FF0028FAD108BD092904
:1010D00010B50AD80724036901EB41018C4023EACB
:1010E00004038A401A43026110BD07240A39C36809
:1010F00001EB41018C4023EA04038A401A43C26099
:10110000F2E7836823F00103836070470068C0F34F
:1011100040007047C06C70471029F0B50FD8002709
:101120006FF03B030124BC463E46E5B2A94207D21C
:10113000013946EA0151C162C0F830C04763F0BDD1
:10114000062C09D8157803F13C0E05FA0EF52F434D
:10115000013401320533E8E7073D052D157806D83F
:1011600003F11E0E05FA0EF54CEA050CF0E79D4062
:101170002E43EDE72DE9F0414FF00F0C00250768F5
:10118000466843FA05F4E4071CD5072D94BFBE4614
:10119000B646ACB24FEA84048ABF203CA4B2A4B2E3
:1011A0000CFA04F82EEA080804F1020E02FA0EFE08
:1011B00001FA04F44EEA040444EA0804072D94BF3B
:1011C000274626460135102DDBD107604660BDE875
:1011D000F08101617047090401617047806808402F
:1011E0007047C36801EA030221EA030141EA0241B0
:1011F00001617047062824D8DFE800F004090E13C7
:10120000181D2000104B1868C0F3406070470E4B4B
:101210001868C0F3C06070470B4B1868C0F340708B
:101220007047094B1868C0F340407047064B186878
:10123000C0F340007047044B186AF9E7024B586A44
:10124000F6E70020704700BF00100240024608B5D4
:101250001046FFF7CFFF0028FAD008BD06282AD88D
:10126000DFE800F0040A0F14191E2400124A136864
:1012700043F08073136070470F4A136843F0806334
:10128000F8E70D4A136843F08053F3E70A4A1368FE
:1012900043F48033EEE7084A136843F00103E9E7BB
:1012A000054A136A43F0010313627047024A536A06
:1012B00043F001035362704700100240034A536831
:1012C00023F0030303435360704700BF0010024044
:1012D000034A536823F4701343EA80435360704712
:1012E00000100240034AD36A23F4706343EA0023E8
:1012F000D362704700100240034AD36A23F470435C
:1013000043EA0033D362704700100240034A536837
:1013100023F4803343EA00435360704700100240D7
:10132000034A536823F4003343EA40435360704751
:1013300000100240034A536823F4404343EA8033D9
:101340005360704700100240034A536823F460530F
:1013500043EAC0235360704700100240034A5368B9
:1013600023F4E06343EA0023536070470010024017
:10137000034A536823F0F00343EA001353607047B5
:1013800000100240044B5A6818B142F480025A60BF
:10139000704722F48002FAE700100240034AD36A41
:1013A00023F00F030343D362704700BF00100240D5
:1013B000034AD36A23F0F00343EA0013D362704771
:1013C00000100240044BDA6A18B142F48032DA624B
:1013D000704722F48032FAE70010024010B504464C
:1013E0004378012B0CBF03200420FFF737FFFFF7E2
:1013F0002DFFA078FFF7BCFFE078FFF7AFFF207963
:10140000FFF7A2FF6079FFF795FF207BFFF7BAFF98
:10141000A07900F04DFA2078FFF75AFF6078FFF7C7
:1014200075FFE07901282DD9FFF7B8FF207A08B1C0
:10143000FFF7C8FF607A08B1FFF7BAFFA07A30B1B2
:10144000FFF750FF0120FFF709FFFFF7FFFEE07AEB
:1014500030B1FFF751FF0220FFF700FFFFF7F6FE64
:101460000020FFF7FBFEFFF7F1FE0220FFF726FF4B
:101470002269064B1A606269054B1A60A269054B26
:101480001A6010BDFFF74CFFD0E700BF240000201A
:101490002C00002028000020034B98420CBF034B77
:1014A000034B1868704700BF003801402800002037
:1014B0002C0000200122430903F1804303F504338B
:1014C000196800F01F0082400A431A607047012229
:1014D000430903F1804303F50433196800F01F004A
:1014E000824011431960196821EA02021A607047AC
:1014F00010B504681A4324F45C740A432243026062
:1015000010BD036843F001030360704781627047B8
:10151000C162704706297AD8DFE801F0047933798F
:1015200063799200836923F0030383618369836194
:10153000836923F070038361072A68D8DFE802F02B
:101540003304090D1115191D836943F010038361DC
:101550007047836943F02003F9E7836943F0300360
:10156000F5E7836943F04003F1E7836943F05003F3
:10157000EDE7836943F06003E9E7836943F07003B3
:10158000E5E7836923F44073836183698361836939
:1015900023F4E0438361072A39D8DFE802F0040628
:1015A0000A0E12161A1E8369D1E7836943F4805329
:1015B000CDE7836943F40053C9E7836943F440539B
:1015C000C5E7836943F48043C1E7836943F4A043DB
:1015D000BDE7836943F4C043B9E7836943F4E0435B
:1015E000B5E7C36923F00303C361C369C361C3697A
:1015F00023F07003C361072A09D8DFE802F033043F
:10160000090D1115191DC36943F01003C36170471B
:10161000C36943F02003F9E7C36943F03003F5E7FA
:10162000C36943F04003F1E7C36943F05003EDE7BA
:10163000C36943F06003E9E7C36943F07003E5E77A
:10164000C36923F44073C361C369C361C36923F4ED
:10165000E043C361072ADAD8DFE802F004060A0E85
:1016600012161A1EC369D1E7C36943F48053CDE74C
:10167000C36943F40053C9E7C36943F44053C5E762
:10168000C36943F48043C1E7C36943F4A043BDE7A2
:10169000C36943F4C043B9E7C36943F4E043B5E722
:1016A000062912D8DFE801F0041109110D1112000A
:1016B000836943F0080383617047836943F40063DF
:1016C000F9E7C36943F00803C3617047C36943F492
:1016D0000063F9E7062909D8DFE801F004150919C4
:1016E0000D1D1100036A43F0010303627047036A92
:1016F00043F01003F9E7036A43F48073F5E7036AE4
:1017000043F48053F1E7036A43F00403EDE7036A0F
:1017100043F04003E9E7036A43F48063E5E7062901
:1017200009D8DFE801F0041509190D1D1100036A3D
:1017300023F0010303627047036A23F01003F9E703
:10174000036A23F48073F5E7036A23F48053F1E717
:10175000036A23F00403EDE7036A23F04003E9E79B
:10176000036A23F48063E5E706290CD8DFE801F07B
:10177000040B060B080B0A00426370478263704734
:10178000C26370470264704738B50C460546FFF7E0
:1017900083FE00EB5403B3FBF4F3AB6038BDC368C6
:1017A00008290CBF23F4805343F48053C36070476F
:1017B000036923F440530B4303617047C36823F468
:1017C000C0630B43C3607047C36823F00C030B4333
:1017D000C3607047436923F440730B434361704710
:1017E000C36843F40053C360704738B504460D46E0
:1017F00000F00EF829462046BDE8384000F000B859
:10180000C1F30801416070474068C0F308007047A9
:1018100003681B06FCD57047FEE7704738B51A4AC7
:101820001A4B1B498B421AD300211A4A93421BD3ED
:101830004FF0E022D2F8143D174C43F40073174DDB
:10184000C2F8143DAC4212D3154C164DAC4212D323
:10185000FEF77EFC144C154DAC4210D338BD52F847
:10186000040B43F8040BDDE743F8041BDEE754F8F0
:10187000043B9847E6E754F8043B9847E6E754F8FA
:10188000043B9847E8E700BFBC8400080000002044
:10189000E0060020FC080020FC080020FC080020D6
:1018A000FC080020FC080020FC080020FC080020A8
:1018B000034A136823F0070303431360704700BF14
:1018C0000020024040EA01039B0710B524D1032AFF
:1018D00022D98E468446DEF800407146A4F10133D9
:1018E00023EA040313F0803F0EF1040E15D1043AED
:1018F000032A4CF8044BEED8714601F1FF3E52B179
:1019000063461EF8011F541E03F8011B41B1224615
:101910009C46002AF4D110BD844601F1FF3EEEE75B
:101920009444002CF7D003F8011B6345FBD110BD94
:1019300070B5860747D0541E002A3ED00346CAB26F
:1019400001E0013C39D303F8012B9D07F9D1032CA9
:101950002CD9CDB205EB05250F2C1A4605EB054514
:1019600034D9A4F1100C2CF00F0603F1100EB6447C
:101970004FEA1C1CC2E90055C2E9025510327245FB
:10198000F8D10CF1010214F00C0F03EB021204F079
:101990000F0C13D0ACF1040323F0030304331344FE
:1019A00042F8045B9342FBD10CF003042CB1C9B2A2
:1019B0001C4403F8011BA342FBD170BD64461346CF
:1019C000002CF4D1F9E703461446C0E7A446E1E74A
:1019D00080EA010C1CF0030F37D110F0030C20F04B
:1019E000030021F0030150F8042B08BF51F8043B19
:1019F0000ED08CF0030C6FF07F434FEACC0C23FA2F
:101A00000CFC51F8043B42EA0C0243EA0C0300BF11
:101A1000A2F1013C9A4201BF2CEA020C1CF0803F6B
:101A200050F8042B51F8043BF2D04FEA02604FEA21
:101A30001222012828BFB0EB036F08BF1B0AF4D0A5
:101A400003F0FF03000EC01A704710F0030F0AD016
:101A500010F8012B11F8013B012A28BF9A42F4D05B
:101A6000A2EB030070474DF8045D50F8042B01F021
:101A7000030521F0030151F8043B022D26D04DD877
:101A800022F07F45B5EB132FA2F1013C2CEA020CAA
:101A90000DD11CF0803C08BF51F8043B0AD185EA07
:101AA0000205B5EB036F0CD150F8042BE8E74FEAC1
:101AB00013235BE03CF07F4C54D10B784FEA126566
:101AC00054E04FEA126503F0FF034FE04FEA02458E
:101AD000A2F1013C4FEA15452CEA020CB5EB134F7D
:101AE00018D11CF0803C08BF51F8043B07D185EAAF
:101AF0000205B5EB034F09D150F8042BE6E75FEA86
:101B00000C4C2FD10B884FEA12452FE04FEA0343CC
:101B10004FEA12454FEA134328E000BF02F0FF05E9
:101B2000B5EB136FA2F1013C2CEA020C0DD11CF0B5
:101B3000803C08BF51F8043B0AD185EA0205B5EBA9
:101B4000032F0AD150F8042BE8E74FEA13630DE0A6
:101B500012F0FF0F06D051F8043B4FEA122523F094
:101B60007F4303E04FF0000020BC704705F0FF0208
:101B700003F0FF00012828BF904204BF2D0A1B0A72
:101B8000F4D0A2EB000020BC704700BF08B410B531
:101B9000002A04469DB034DB4FF4027C4FF0000372
:101BA000ADF814C01B934FF6FF7C0291069120AB59
:101BB00015D0013A0492079202A91F9A0193ADF839
:101BC00016C000F097F8421C01DA8B232360002234
:101BD000029B1A701DB0BDE8104001B0704704921E
:101BE000079202A91F9A0193ADF816C000F082F87F
:101BF000431C01DA8B2323601DB0BDE8104001B007
:101C000070478B234FF0FF302360F5E70CB410B51D
:101C1000204B00291C689CB036DB4FF000034FF4CA
:101C200002721B934FF6FF7C02900690ADF81420D1
:101C30001FAB16D001391E9A04910791204602A9C4
:101C40000193ADF816C000F055F8421C01DA8B2361
:101C500023600022029B1A701CB0BDE8104002B045
:101C600070470491079120461E9A02A90193ADF88E
:101C700016C000F03FF8431C01DA8B2323601CB030
:101C8000BDE8104002B070478B234FF0FF30236057
:101C9000F5E700BF3000002020F0030110F0030042
:101CA000C0F1000051F8043B00F1040C4FEACC0CE9
:101CB0006FF000021CBF22FA0CF213434FF0010C2C
:101CC0004CEA0C2C4CEA0C4CA3EB0C0222EA03026B
:101CD00012EACC1204BF51F8043B0430F4D0C2F134
:101CE000000102EA0102B2FA82F2C2F11F0200EB25
:101CF000D20070472DE9F04FC3B00C460C919246CC
:101D00000E930D9003F098FD036818461493FFF7A7
:101D1000C3FFA3891390190603D52369002B00F094
:101D2000BE86002332AA19469146CDE92633259274
:101D3000129300220023D346CDE91023CDE91511DB
:101D40000A919BF80030002B00F046815C4604E0CD
:101D500014F8013F002B00F02381252BF8D1B4EBC0
:101D60000B0540F020812378002B00F035814FF0E7
:101D700000034FF0000A8DF877304FF0FF33CDE9C4
:101D8000083A637804F1010B98460BF1010BA8F1B6
:101D90002003582B00F22D81DFE813F050022B01B5
:101DA0002B014B022B012B012B012B012B012B01B2
:101DB000140245022B011E0223022B01400259008E
:101DC000590059005900590059005900590059004B
:101DD0002B012B012B012B012B012B012B012B01A3
:101DE0002B012B016800A6012B01A6012B012B0161
:101DF0002B012B017B022B012B0198002B012B01C6
:101E00002B012B012B01A9002B012B0158062B01C3
:101E10002B012B012B012B012B012B012B012B0162
:101E20002B016D026A00A601A601A60168026A00E4
:101E30002B012B015B022B01B8029A00A702A20220
:101E40002B0180022B01AB002B012B017906002214
:101E5000A8F130031BF8018B02EB820203EB420274
:101E6000A8F13003092BF5D9099290E74AF0100A3E
:101E70001AF0200F00F076810E9B073323F0070342
:101E80001846596850F8083B0A460E900029C0F2DF
:101E9000918108999DF87700002908DB2AF08001DC
:101EA000069153EA020100F0B583DDF818A00A2B71
:101EB00072F1000180F0898630338DF8C73001233C
:101EC000CDF818A00B930DF1C70553E04AF0100AA6
:101ED0001AF0200200F05F810E9B0021073323F0EF
:101EE000070318465A6850F8083B0E900FE04AF076
:101EF000100A1AF0200200F044810E9B01210733E2
:101F000023F0070318465A6850F8083B0E9000204B
:101F1000089C8DF87700002C08DB2AF080040694DA
:101F200053EA020400F07783DDF818A00129BED03F
:101F3000022900F0EF8232AD03F00701DB0843EA2B
:101F40004273D208303153EA02062C4605F8011DCF
:101F5000F2D11AF0010F00F0EB82302900F0E88294
:101F60003023023C05F8013C254632AB1B1BCDF863
:101F700018A00B93089B0B9A9342B8BF1346079384
:101F800000230F9310B1079B01330793069B13F0B7
:101F9000020A42D0079B4FF0020A023307933CE04B
:101FA000B4EB0B0518D0279BC9E900B52B44279348
:101FB000269B0133072B269305DC09F108090A9BB0
:101FC0002B440A93CFE625AADDE90C1002F024FE8B
:101FD00030B90DF1C809F2E7279B002B40F0658767
:101FE0000C9B9B895B0601F12A800A9843B0BDE8EF
:101FF000F08FB8F1000FEFD000238DF87730012378
:102000008DF8A080079328AD0B93CDF818A04FF062
:10201000000ACDF820A0CDF83CA0069B279C13F029
:10202000840305D1099A0799561A002E00F30583F7
:102030009DF8772082B10122C9F80420269A013444
:1020400001320DF17701072A27942692C9F8001072
:1020500000F32C8309F10809BAF1000F0FD0022216
:10206000C9F80420269A023401321EA9072A2794AF
:102070002692C9F8001000F3278309F10809802B84
:1020800000F0BA81089B0B9A9E1A002E00F3F8818B
:10209000069BDE0500F148810B9BC9F800501C44EB
:1020A000C9F80430269B27940133072B269300F3AD
:1020B0005A8209F10809069B5A0705D5099B079A18
:1020C0009D1A002D00F30E83DDE9092307998A424A
:1020D000ACBF9B185B180A93002C40F02F820023A2
:1020E0000DF1C80926932CE60E9B4FF0FF32073303
:1020F00023F00703F3E802450E9325F000431993FC
:102100001894DDE91867B64B30463946CDE91045DD
:1021100005F072FE002840F026844FF0FF32304672
:102120003946AF4B05F04AFE002840F01C840022DF
:1021300000232046294605F037FE002840F043865C
:102140009DF87700032200212AF08003A54D069315
:10215000A54BCDE90721B8F1470FD8BF1D460B921B
:102160000F910FE70E9A1AF0100F52F8043B0E92DF
:102170001BD11AF0400F18D043F3C03211461BB2E6
:1021800084E60E9951F8043B0E911AF0100100F00C
:10219000E2830121BBE60E9951F8043B0E911AF03F
:1021A000100100F0D0831146B1E6DA17114600297C
:1021B000BFF66FAE5B424FF02D004FF0010162EBB6
:1021C0004202A5E60E9B53F8042B002A09920E93B7
:1021D00004DA099B5B4209934AF0040A9BF8003039
:1021E000D2E5594611F8018BB8F12A0F00F06F873C
:1021F000A8F13003092B98BF002200F2DF8611F806
:10220000018B02EB820203EB4202A8F13003092B9F
:10221000F5D942EAE2738B460893B8E59BF80030A3
:102220004AF0800AB0E52B238DF877309BF8003018
:10223000AAE59BF800304AF0010AA5E59DF8772051
:102240009BF80030002A7FF49FAD20228DF8772084
:102250009AE59BF800306C2B03BF9BF801304AF0E5
:10226000200A0BF1010B4AF0100A8DE59BF80030B3
:102270004AF0400A88E5002201210E9B8DF8772064
:1022800053F8042B07918DF8A0200E9328AD0B91E5
:10229000BBE69BF800304AF0080A75E500260E9C64
:1022A000089B54F8045B8DF87760002D00F03285B0
:1022B000002BC0F203841A463146284603F04CFA3C
:1022C000002800F06A86431B0B9323EAE3739DF812
:1022D000770008960E94CDF818A007930F9651E654
:1022E0009BF800304AF0200A4EE547F630030E9A7C
:1022F0003E48ADF8783052F8043B02210E924FF080
:10230000780800224AF0020A159000E61AF0200F21
:1023100000F00C830E9B0A9A1B681A60D2175A6051
:102320000E9B04330E930CE5B8F1650F40F3278143
:10233000DDE910010022002305F02CFD002800F04B
:102340000E820123C9F80430269B294A0133013447
:10235000072B27942693C9F8002000F3B48409F1D1
:1023600008091F9B129A934203DB069BDD077FF54A
:10237000A2AE139B149A1C44C9E90023269B279400
:102380000133072B269300F3B88409F10809129B47
:102390005D1E002D7FF78FAE102D269B40F3D7805A
:1023A000DDE90CA81026134F05E009F10809103DDE
:1023B000102D40F3CD8001331034072BC9E900768E
:1023C000CDE92634F1DD5146404625AA02F024FC31
:1023D00000287FF405AEDDE926340DF1C809E6E7F3
:1023E000FFFFEF7F3C810008388100085C81000816
:1023F000788100085C820008099B079A9E1A002ECB
:102400007FF740AE102E269B40F3E0854A462146DA
:10241000A946DDE90C544FF0100AB74F04E0103E16
:10242000102E02F1080215DD01331031072BC2E92D
:10243000007ACDE92631F2DD2946204625AA02F0B0
:10244000EBFB00287FF4CCADDDE92631103E102EE9
:1024500032AAE9DC4D460C46914601333444072B41
:10246000CDE92634C9F80070C9F8046000F3388457
:10247000089B0B9A09F108099E1A002E7FF708AEF7
:10248000102E269B9C4F2CDD4A462146B1464FF02C
:10249000100A2E46DDE90C5406E0A9F11009B9F145
:1024A000100F02F1080218DD013393481031072B99
:1024B000C2E9000ACDE92631EFDD2946204625AAEA
:1024C00002F0AAFB00287FF48BADDDE92631A9F1EB
:1024D0001009B9F1100F32AAE6DC35460C464E461B
:1024E000914601333444072BCDE92634C9F80070F6
:1024F000C9F8046000F3F08109F10809C8E5012971
:102500004FF00003DDF818A03FF4D6AC02291A46BC
:102510007FF411AD159C32AD03F00F01615C1B0916
:1025200043EA0273120905F8011D53EA0201F3D1CF
:1025300032AB5B1BCDF818A00B931BE525AADDE998
:102540000C1002F069FB00283FF4C9AD48E56A4F62
:1025500001332C44072BC9F80070C9F80450CDE9A9
:1025600026347FF7A6ADDDE90C1025AA02F054FB56
:1025700000287FF435AD279C0DF1C8099BE5129B1F
:10258000269E012B04F1010406F1010609F1080859
:1025900040F35E810123072ECDE92664C9F800507F
:1025A000C9F8043000F3A581139B0136149A1C442A
:1025B000072EC8E90023CDE9266400F3A78108F1BE
:1025C0000808129B0022DDE9100103F1FF39002306
:1025D00005F0E0FB002840F05681013601354C44FF
:1025E000072ECDE92664C8F80050C8F8049000F31F
:1025F0003D8108F10808169B01361C44C8F80430D8
:10260000072E21ABCDE92664C8F80030ABDC08F119
:10261000080950E50121089B002B7FF470AF0029C9
:1026200040F011811AF001030B9300F07C813023FC
:102630000DF1C7058DF8C7309CE4102E269A2F4F58
:1026400026DD49462046A946DDE90C54179304E0EF
:10265000103E102E01F1080116DD1023013210305A
:10266000072ACDE926200F604B60F1DD2946204680
:1026700025AA02F0D1FA00287FF4B2ACDDE92620C9
:10268000103E102E32A9E8DC4D4604468946179BC1
:1026900001323444072ACDE92624C9F80070C9F86C
:1026A000046000F3018309F10809C1E425AADDE90A
:1026B0000C10179302F0B0FA00287FF491AC279C1D
:1026C000179B0DF1C809C7E425AADDE90C10179383
:1026D00002F0A2FA00287FF483AC279C179B0DF12F
:1026E000C809CCE4102D269B40F36D84DDE90CA8CD
:1026F0001026024F09E000BF5C8200084C820008EF
:10270000103D102D09F1080916DD01331034072B97
:10271000C9E90076CDE92634F2DD5146404625AAC6
:1027200002F07AFA00287FF45BACDDE92634103D34
:10273000102D0DF1C809E8DC01332C44072BC9E941
:102740000075CDE926347FF7BFACDDE90C1025AA72
:1027500002F062FA00287FF443AC279CB4E41F998E
:10276000002940F36D820F9F129B9F42A8BF1F4616
:10277000002F0BDD269B3C440133072BC9E9005792
:102780002794269300F3EB8309F108090F9E002F8D
:10279000A8BFF61B002E00F3A9811F9B129A93423B
:1027A00080F27881139A14991444C9E90012269A88
:1027B00027940132072A269200F3178309F10809AA
:1027C000129A0F99D31A561A9E42A8BF1E46002E7F
:1027D0000EDD269A0D4401323444072AC9F8005010
:1027E000C9F804602794269200F3C88309F1080908
:1027F000002EB4BF1D469D1B002D7FF75CAC102D35
:10280000269B7FF7A4AEDDE90CA81026B44F05E0A7
:1028100009F10809103D102D7FF79AAE01331034ED
:10282000072BC9E90076CDE92634F1DD5146404653
:1028300025AA02F0F1F900287FF4D2ABDDE92634B5
:102840000DF1C809E6E7089B32AD0B93FFF792BB89
:10285000069BD9073FF59EAE0123072ECDE92664DE
:10286000C9F80050C9F804307FF7C5AEDDE90C1097
:1028700025AA02F0D1F900287FF4B2ABDDE9266485
:102880000DF1C808B7E6129B012B7FF7B4AE112BF0
:1028900040F349821025924FDDF834A007E008F19B
:1028A0000808A9F11009B9F1100F40F33D82013673
:1028B0001034072EC8E90075CDE92664EFDD5046D7
:1028C0000C9925AA02F0A8F900287FF489ABDDE96C
:1028D00026640DF1C808E4E725AADDE90C1002F032
:1028E0009BF900287FF47CAB279C0DF1C809FFF70A
:1028F000CFBB25AADDE90C1002F08EF900287FF489
:102900006FABDDE926640DF1C8084DE625AADDE9C7
:102910000C1002F081F900287FF462ABDDE9266437
:102920000DF1C8084DE632ADFFF724BB1AF0100FC9
:1029300040F002811AF0400F00F0FE800E9B0A9AD0
:102940001B681A80ECE41AF040021CBF0A469BB2D6
:102950001146FFF7DCBA1AF040021CBF0A469BB2D0
:102960000121FFF7D4BADDE9100102460B4605F05C
:1029700043FA002840F07583089B28F020065A1C73
:1029800000F0F982472E03D1002B08BF01230893E2
:102990004AF48070DDE91012002A0690C0F23A82F3
:1029A00000231793DDE91034CDE91A34B8F1650F2F
:1029B00000F0008300F33582B8F1450F00F0FA8291
:1029C000089B0D9801930223009323AB049320AB43
:1029D00003931FAB0293DDE91A2300F0DFFE1AF028
:1029E000010F054600F0AE80089BC4180022DDE907
:1029F0001A01002305F0CEF9002840F03382239B12
:102A0000A34206D230215A1C23921970239B9C4268
:102A1000F9D81F9A0F925B1B472E129300F09780F4
:102A2000B8F1660F40F099800F99089A0AF00103F7
:102A3000002943EA020340F36982002B40F02C8313
:102A40000F9B4FF0660807930B9324E2254B1593D9
:102A50001AF0200200F0AB800E9B073323F007032F
:102A600019465A6851F8083B0E911AF0010F00F010
:102A70009B8053EA020100F0978030218DF8798025
:102A80008DF878104AF0020A0221FFF740BA164B7F
:102A90001593DDE7069AD0077FF592AE82E64021D6
:102AA0000D9800F02FFB0C9B18601861002800F0B7
:102AB000C38240230C9A5361FFF733B92846FFF7CE
:102AC000EBF8034623EAE3730B9008969DF8770032
:102AD0000E94CDF818A00F960793FFF753BA00BFD6
:102AE0005C820008488100085C810008102E269B4B
:102AF00040F3FC822246DDE90C4A4FF01008C14F3A
:102B000005E009F10809103E102E40F34D81013314
:102B10001032072BC9E90078CDE92632F1DD2146D4
:102B2000504625AA02F078F800287FF459AADDE97A
:102B300026320DF1C809E6E70E9B0A9A1B681A6057
:102B4000FFF7EEBB239B1B1A12931F9B0F930F9B48
:102B5000DF1C80F28B81A8F102080F9A8DF8848027
:102B6000531E002BA8BF2B221F93BCBFC2F1010331
:102B70002D22092B8DF8852000F39E8130338DF8AE
:102B8000873030238DF8863004231693129A169BD3
:102B9000012A13440B9340F335820B9B139A134481
:102BA00000220B930F9273E10221FFF7B0B90E9947
:102BB00051F8043B0E911AF010017FF456AF1AF051
:102BC00040021CBF0A469BB24FE74FF0CC3E0527A0
:102BD000CDE9068A8C4C32AD9C461646991841F1D7
:102BE0000001A4FB018A2AF0030808EB9A08A1EB74
:102BF00008015B1A62F100080EFB03F204FB0822D5
:102C0000A3FB048308F0010A1A44AAFB073A5B18E5
:102C1000BCF10A0F03F130034FEA580876F10006C1
:102C200005F8013D48EAC2734FEA5202D4D2DDE909
:102C3000068A32AB5B1BCDF818A00B93FFF79AB94D
:102C40000123C9F80430269B704A01330134072B55
:102C500027942693C9F8002000F3BA8009F10809E7
:102C600000296DD1069B129A03F0010313433FF430
:102C700022AA139B14991A19C9E90013269B2792BB
:102C80000133072B269300F34A8109F108091299B1
:102C900001338C18072BCDE92634C9F80050C9F848
:102CA00004107FF706AA5EE425AADDE90C1017934D
:102CB00001F0B2FF00287FF493A9279C179B0DF128
:102CC000C809FFF7B5B925AADDE90C1001F0A4FF8A
:102CD00000287FF485A9279C0DF1C809FFF741BBA7
:102CE00025AADDE90C1001F097FF00287FF478A9F0
:102CF000279C0DF1C809FFF7C5B925AADDE90C101D
:102D000001F08AFF00287FF46BA9279C0DF1C80908
:102D1000FFF73DBB062B28BF06233D4D0B930E94BA
:102D20000793FFF772B9374F01364C44072ECDE9B0
:102D30002664C8F80070C8F804907FF75AAC95E58F
:102D4000139B14981A19C9E90003269B2792013393
:102D5000072B269300F3E38009F10809002996DA8E
:102D60004E42103180F23581DDE90CA81024254F48
:102D700005E009F10809103E102E40F32B810133C4
:102D80001032072BC9E90074CDE92632F1DD514636
:102D9000404625AA01F040FF00287FF421A9DDE983
:102DA00026320DF1C809E6E7144601333444072BF7
:102DB000CDE92634C9F80070C9F8046000F3BD807D
:102DC00009F10809E9E42D208DF87700FFF7BAB979
:102DD00025AADDE90C1001F01FFF00287FF400A9EF
:102DE0001F99279C0DF1C8093AE725AADDE90C10C7
:102DF00001F012FF00287FF4F3A81F9B279C0DF120
:102E0000C809DDE45C820008CDCCCCCC7881000818
:102E1000708100082D23179302F100431A911B9330
:102E2000C4E5B8F1660F7FF4CBAD0323089FCDE96D
:102E3000003723AB049320AB03931FAB02930D9891
:102E4000DDE91A2300F0AAFCB8F1660F054600EB95
:102E500007047FF4CBAD2B78302B00F0F5801F9F5B
:102E60003C44C3E51F9A23460F92D4E5089A9A4240
:102E7000FFF671AE129B0F9A934200F3C9801AF0CD
:102E8000010F0F9B1CBF139A9B180B934FF0670801
:102E900023EAE3730793179B002B5AD02D238DF859
:102EA000773000230893FFF76EB825AADDE90C10F0
:102EB00001F0B2FEFFF794B80DF1930632468C4F45
:102EC0001C461046A7FB0321C90801EB8102A3EBB6
:102ED00042023032632C00F8012C0B4600F1FF3225
:102EE000EEDC303302F8013C831EB34280F0FB80FD
:102EF0000DF1850213F8011BB34202F8011FF9D14D
:102F000042AB181AA0F1710316933FE6002B40F074
:102F1000D28001234FF0660807930B93BBE725AAE5
:102F2000DDE90C1001F078FE00287FF459A8DDE9F6
:102F300026321F990DF1C80910E725AADDE90C100A
:102F400001F06AFE00287FF44BA8279C0DF1C80908
:102F500023E4179B9DF877000893FFF713B825AA81
:102F6000DDE90C1001F058FE00287FF439A8279CF9
:102F70000DF1C8090AE40623089309E525AADDE94D
:102F80000C1001F049FE00287FF42AA81F9B129A1A
:102F9000279C0DF1C809D31A2AE4089B0E940793C5
:102FA0000B9303460890CDF818A09DF877000F9377
:102FB000FEF7E8BF089A0223571C38E700238B4628
:102FC0000893FEF7E4BE4B4FFFF7B6BB4A4FFFF73F
:102FD00044BA494F01333244072BCDE92632C9F8B0
:102FE0000070C9F804607FF750AEDDE90C1025AA27
:102FF00001F012FE00287EF4F3AFDDE926320DF178
:10300000C80944E61AF001020F927FF4C6AD3FE70B
:10301000DDE9123213440F9A0B93002A3FF736AFC3
:103020000F9B0B9AC3F101031A4422EAE2734FF09B
:1030300067080B9207932EE70C230D9A13604FF04D
:10304000FF330A93FEF7D1BF0022DDE91A01002306
:1030500004F0A0FE50B31F9B1C440F93631B1293FC
:10306000E2E4119B0322002BB8BF2D204FF000019A
:103070002AF08003214D0693214BACBF9DF87700C9
:103080008DF87700CDE90721B8F1470FD8BF1D466D
:103090000B920F91FEF776BF139B4FF066081A4410
:1030A00053180B9323EAE3730793F4E6C7F1010780
:1030B0001F973C449AE4139B03F10108089B434487
:1030C0000B9323EAE3734FF066080793E3E60E9A47
:1030D0009BF801308B4652F8041B0E9241EAE172D4
:1030E0000892FEF751BE022316934FE5024F5CE6AD
:1030F000CDCCCCCC4C8200085C8200084481000816
:10310000408100082DE9F04F01F10B05162D064610
:1031100083B024D8102900F2AD8001F067FC10259F
:1031200018234FF0020CC14F3B445C68A3F1080226
:10313000944200F0238130466368E268A16823F07E
:103140000303CA60234491605A68083442F00102C4
:103150005A6001F04DFC204603B0BDE8F08F35F019
:10316000070500F18780A94200F2848001F03EFC4F
:10317000B5F5FC7FC0F06C816B0A7FD0042B00F2A8
:103180002481AB0903F1390C03F1380E4FEACC006E
:10319000A64F384444680838A04207D10DE0002A01
:1031A000E16880F2E580884207D00C46636823F02E
:1031B00003035A1B0F2AF2DDF446DFF874823C69E0
:1031C000444500F0C280636823F00309A9EB0503BE
:1031D0000F2B00F34281002BC7E9048880F22C8179
:1031E000B9F5007FD7F804E080F0CF8001234FEAE3
:1031F000D9014FEA5919194403FA09F357F8312054
:103200004EEA030E07EBC103083BA260E360C7F878
:1032100004E047F83140D46001204FEAAC03984005
:10322000704532D810EA0E0F07D12CF0030C400085
:1032300010EA0E0F0CF1040CF9D007EBCC0AD646BD
:10324000E146DEF80C300BE059681C4621F0030122
:103250004A1B0F2ADB6800F3C580002A80F2D98060
:103260009E45F1D109F1010919F0030F0EF1080E85
:10327000E7D11CE10C23336000246CE74FF40070AD
:103280004FF0400C4FF03F0E82E7BC68636823F0BC
:103290000309A94503D3A9EB05030F2B58DCDFF87D
:1032A00094B104EB0903DBF800200820103202EB94
:1032B0000508009301F08CFBD7F808140246013191
:1032C00005D008F1FF388044414201EA0808414630
:1032D0003046009201F0CCFCB0F1FF3F8246009AEC
:1032E00000F0D68004EB0903834200F2CF80DBF8C4
:1032F000041002F1FF3C41440846CBF8041040F0B2
:10330000F3801AEA0C0F40F0EF80D7F808A0C84409
:1033100048F00100CAF804005446DBF82C208A4229
:10332000DBF8302038BFCBF82C108A4238BFCBF8FE
:10333000301020F00308A845A8EB050301D30F2B9C
:1033400006DC304601F054FB96E7D7F804E063E76B
:10335000621943F0010345F0010565603046BA602B
:103360000834536001F044FB204603B0BDE8F08F01
:10337000A2683046D16023448A60E5E6DC68A34257
:103380007FF4D9AE0CF1020C17E7B9F5206F4FEAC4
:10339000592274D3142A00F2078102F15C03DB0086
:1033A0005B32F918FB580839994203D1E4E09B6875
:1033B000994204D05A6822F003024A45F7D8D968E6
:1033C000C4E902318C60DC6026E7142B63D9542BEE
:1033D00000F2F3802B0B03F16F0C03F16E0E4FEA3A
:1033E000CC00D5E6D4F808C03046661945F0010592
:1033F0006560CCF80C30C3F808C042F00103C7E99F
:103400000466C6E902887360625001F0F1FA08347C
:10341000A1E621444A68304642F001024A6054F86D
:10342000082FD3609A6001F0E3FA94E65801002077
:103430006001002084070020A144D9F80430304600
:1034400043F00103C9F8043001F0D2FA083482E6EF
:103450004FEAD50C05F1080365E6621943F0010156
:1034600045F0010565603046C7E90422C2E90288DB
:10347000516044F8093001F0BBFA08346BE64FEABA
:10348000991202F13903DB0038328AE7BC4224D0BA
:10349000BC6860684DE703F15C0C03F15B0E4FEA1A
:1034A000CC0075E65AF80839534540F0D6801CF038
:1034B000030F0CF1FF3CF5D17B6823EA00037B602E
:1034C000400098423FF6E1AE18B9DEE6400009F14F
:1034D00004091842FAD0CC46AFE6DBF8040002F14A
:1034E000FF3C4044CBF80400D7F8081401316FD0FA
:1034F00004EB0903AAEB03031844CBF804001AF009
:103500000703009341D0C3F108018A44D0440A4420
:1035100008EA0C01521A02EA0C013046019101F04E
:10352000A7FB421C71D00199A0EB0A0000EB010837
:10353000DBF8042048F001001144BC42C7F808A0A1
:10354000CBF80410CAF804003FF4E6AEB9F10F0F4F
:1035500041D905236268A9F10C0020F0070002F0B0
:103560000102024362600F2804EB0002C2E901334A
:1035700053D8DAF80400CFE60120921000FA02F2E4
:103580004EEA020EC7F804E01AE70AEB080101EA66
:103590000C01521A02EA0C013046019101F068FB5D
:1035A000431CC0D10099C3E7542A18D84FEA1932F6
:1035B00002F16F03DB006E32F3E6B3F5AA7F18D891
:1035C000EB0B03F1780C03F1770E4FEACC00DFE54B
:1035D000C7F808A493E70123CAF80430B1E6B2F5AE
:1035E000AA7F24D84FEAD93202F17803DB00773280
:1035F000D7E640F25452934224D8AB0C03F17D0C31
:1036000003F17C0E4FEACC00C2E5009B0021A3F140
:1036100008029044A8EB0A088AE704F10801304642
:1036200001F064F8DBF80410D7F808A0A1E740F235
:1036300054539A420DD84FEA994202F17D03DB00C0
:103640007C32AEE64FF47E704FF07F0C4FF07E0E72
:103650009EE54FF47E737E22A3E67B6830E700BFD1
:103660002DE9F04F03690C6985B0A342C0F2918047
:103670008146013C01F1140509F1140855F8243084
:1036800058F824C001339C45BCFBF3F64FEA840094
:1036900005EB840708EB840243D34FF0000CAA46E5
:1036A000CDE90105C646634665469346CDF80C80D4
:1036B0005AF8040BDEF800201FFA80FC06FB0C55BC
:1036C0004FEA10484FEA154C06FB08CCADB290B259
:1036D000401B18441FFA8CF3C3EB204303EB124347
:1036E00080B240EA034057454EF8040B4FEA1C45B0
:1036F0004FEA2343DCD2DDE90105DDF80C8058F800
:10370000003073B9ABF10402904504D307E0904553
:1037100004F1FF3403D252F80439002BF7D0C9F872
:103720001040484601F0B6FD00282EDB414600223D
:1037300055F8040BD1F800C01FFA80FE1FFA8CF375
:10374000A3EB0E031344020CC2EB234202EB1C4218
:103750009BB243EA0243AF4241F8043B4FEA2242A4
:10376000E6D258F8242008EB84036AB9043B4345A9
:1037700004D807E0984504F1FF3403D253F8042934
:10378000002AF7D0C9F810400136304605B0BDE830
:10379000F08F002005B0BDE8F08F00BF2DE9F04F9D
:1037A00016461F46816B9DB0CDE90667299D0390A3
:1037B00049B10123C26B044693408B604A6001F01B
:1037C000B5FA0023A363B7F10009B4BF01230023B6
:1037D0002B60794BBCBF29F00049CDF81C9033EA2F
:1037E000090300F0AD80DDE90634184621460022C9
:1037F0000023CDE9040104F0CDFA804668B101232D
:10380000289A13602A9B13B16C4B2A9A13606C4B55
:10381000089308981DB0BDE8F08F1AAB01931BAB5D
:1038200000930398DDE9042301F092FE5FEA195545
:10383000824640F09B80DDE91A85454405F232431B
:10384000202B40F38D83C3F1400309FA03F905F2FD
:10385000124326FA03F349EA030003F0B9FF0123F8
:10386000013D1193A1F1F8710022564B03F072FE55
:103870004BA3D3E9002304F025F84BA3D3E900239D
:1038800003F06AFE064628460F4603F0B1FF48A340
:10389000D3E9002304F016F802460B4630463946B9
:1038A00003F05AFE06460F4604F0BCFA0022044616
:1038B000099000233046394604F076FA002840F09B
:1038C0002583099CA8EB050808F1FF33162C0A9301
:1038D00000F29181DDE904013B4B03EBC403D3E922
:1038E000002304F061FA002874D0631E09930023BA
:1038F000109308F1FF33002BC0F2848100230B9357
:10390000099B002B6CDA099B0B9A0E93D21A5B422F
:103910000F9300230993269B0B92092B6AD8052B42
:1039200040F323830025043B2693269B023B032B75
:1039300000F24186DFE813F072046F0466044A0463
:1039400042F20F73289AC9F3130959EA0609136062
:103950001CD12A9B002B00F04E861C4B0893083389
:103960002A9A089813601DB0BDE8F08FDDE90412B3
:10397000C2F31303084643F07F51CDF84480A5F20B
:10398000FF35DDF8688041F440116DE72A9B002B7C
:1039900040F0F7830E4B08933BE700BFAFF3008086
:1039A00061436F63A787D23FB3C8608B288AC63F45
:1039B000FB799F501344D33F0000F07F79810008CA
:1039C000788100080000F83F808200087C810008B0
:1039D00088810008B8F1000F40F3A88410900B9084
:1039E000DDE9092313440A9300230F93269B0E92CB
:1039F000092B94D9002301254FF0FF3B26932793F1
:103A00000C950021039BCDF860B0D963039801F0B9
:103A100067F90890002800F0D785039B089ABBF14E
:103A20000E0F9A6300F21981002D00F016810E9995
:103A3000002940F34984B44B01F00F0203EBC203A9
:103A4000C8054FEA2115D3E9006740F10A84DDE992
:103A50000401AE4B4FF00309D3E9082304F05CF8EE
:103A6000CDE9120105F00F058DB1DFF8A082E9075D
:103A700009D5D8E900233046394603F023FF06462E
:103A80000F4609F101096D1008F10808EFD1DDE9D1
:103A900012013B46324604F03FF807468846109B29
:103AA00043B1002238464146994B04F07DF9002885
:103AB00040F01085484603F09BFE3A46434603F02B
:103AC00001FF0022934B03F047FD0446A1F150751E
:103AD000BBF1000F00F0AA800E9BCDF848B01993FF
:103AE0004146384604F09EF91299874BCDE91445BA
:103AF00003EBC10353E902340546CDE9163403F064
:103B000077FE0B4602464146384603F023FD089FE8
:103B10000C9B30357E1CECB2804689463546002B26
:103B200000F06E84DDE9162300207B4903F0F4FFEA
:103B3000DDE9142303F00EFD3C7042464B4604467B
:103B40000D4604F04FF9002840F0BB84CDF850A09A
:103B5000CDF858B00027AB46A246129D2AE00137A7
:103B6000AF4280F201855046594600226B4B03F06C
:103B7000A9FE0022694B82468B464046494603F027
:103B8000A1FE8946804604F04DF9044603F030FE5C
:103B900002460B464046494603F0DCFC30345246B0
:103BA0005B4606F8014B8046894604F0FDF8002884
:103BB00040F0D78442464B460020554903F0CAFCEA
:103BC00052465B4604F0F0F80028C8D0199B3746EF
:103BD000DDF850A0089A03F1010802E0974200F0D6
:103BE0009F843E4617F8013D392BF7D00133DBB2F5
:103BF00045463B7079E10123109308F1FF33002B18
:103C0000BFF67CAEC8F101030B9300230A9377E65D
:103C1000484603F0EDFD3A46434603F053FE0022CA
:103C20003C4B03F099FC0446A1F150753846002244
:103C30003B4B414603F08EFC22462B4606460F4680
:103C400004F0D0F8002840F07A8430463946224605
:103C500005F1004304F0A8F828BB1B9B002BC0F221
:103C600091800E9A0E2A00F38D80274B0E9A03EB5B
:103C7000C203D3E90034CDE90634279B002B19DABF
:103C8000BBF1000F16DC0ED1DDE906010022244B4A
:103C900003F018FE02460B46DDE9040104F08EF83D
:103CA000002800F04C8400231F46089E0493279BA5
:103CB000DD432DE2089B5D1CDDE90678DDE90401AA
:103CC0003A46434603F028FF04F0ACF8064603F0FA
:103CD0008FFD3A46434603F0F5FD02460B46DDE90B
:103CE000040103F037FC089A06F13003BBF1010F21
:103CF0002F46137000F025830125CDF810A0A846AB
:103D0000DDE9069A2CE000BF80820008708300087D
:103D10000000F03F00001C400000E03F0000244095
:103D2000000014404A4653462046294603F0F4FE5C
:103D300004F078F8064603F05BFD4A46534603F06C
:103D4000C1FD08F101080B4602462946204603F052
:103D500001FC06F13003D84507F8013B00F0EF8283
:103D60000022834B03F0AEFD0022002304460D46E3
:103D700004F010F80028D5D00E9D3E46DDF810A0C6
:103D80000135B2E00C9A002A40F0D68000231F468D
:103D90000F9E0B9D0C9365B10A9900290B4608DD17
:103DA000A942A8BF2B460B9AED1AD21ACB1A0B9236
:103DB0000A930F9B53B10C9B13B1002E40F0FC8271
:103DC00051460F9A039801F095F982460121039814
:103DD00001F0B0F8099B0490002B40F0BD81269BB8
:103DE000012B40F3D38101200A9A104410F01F00E8
:103DF00000F09980C0F12003042B40F3E2810B9B7B
:103E0000C0F11C00034402440B9305440A920B9B2F
:103E1000002B05DD51461A46039801F0C5F982468C
:103E20000A9B002B05DDDDE903011A4601F0BCF910
:103E30000490109B002B40F07481BBF1000F40F305
:103E40004B810C9B002B40F0A2800E9D013501267A
:103E5000DDE90394DDF8208007E0514600230A22C3
:103E6000484600F06DFF8246013621465046FFF776
:103E7000F7FBB34500F1300008F8010BEDDCBBF1B6
:103E8000000FCCBF5E46012681460024089B03EB51
:103E9000060B51460122039801F086F904998246E7
:103EA00001F0F8F9002840F3F081089A02E0934508
:103EB00000F005821BF8013C5E46392B0BF1FF3BFD
:103EC000F5D001338BF80030DDE90381404600F086
:103ED0002DFF57B12CB1BC4203D02146404600F023
:103EE00025FF3946039800F021FF5146039800F062
:103EF0001DFF00233370289B1D602A9B002B3FF47D
:103F000088AC08981E601DB0BDE8F08F204603F015
:103F10006FFC32463B4603F03DFF00287FF4D1ACF6
:103F2000631E0993CDE41C230B9A1D441A440B9283
:103F30000A9A1A440A926AE7269A012A40F3B08143
:103F40000F9B0BF1FF36B342C0F26B81BBF1000F48
:103F5000A3EB060680F2F7820B9BA3EB0B056EE149
:103F6000C3F1200306FA03F077E40125DDE400BF86
:103F700000002440394600230A22039800F0E0FEA6
:103F8000189B0746002B40F307839B460E96002D97
:103F900005DD39462A46039801F006F90746099BD4
:103FA000002B40F0ED81B846089B1E46013B03EB19
:103FB0000B04069B03F00103CDE90A43039C04991B
:103FC0005046FFF74DFB39468346504601F062F9F3
:103FD000049905464246204601F07CF9C368014633
:103FE0000BF13009ABBB0990504601F053F9099928
:103FF0000990204600F09AFE099A002A54D1269B87
:104000001BB90B9B002B00F0B582002D3FDBB346A4
:104010000A9B0BF8019B9E4200F0C9815146002388
:104020000A22204600F08CFE4745824639464FF072
:1040300000034FF00A02204630D000F081FE4146D6
:1040400000230A220746204600F07AFE5E4680469C
:10405000B5E7039800F06AFE002D06DB069B03F02F
:104060000102269B1D432A4329D151460122039870
:1040700001F09AF80499824601F00CF9002840F307
:10408000F880B9F1390F00F050820BF131090E9D23
:104090003C460135474606F8019B15E700F050FE07
:1040A0005E46074680468AE7002DC0F29B82269B2B
:1040B0001D430B9B1D4300F09582002AA7DDB9F13B
:1040C000390F00F032820E9D09F101033C460135A3
:1040D000474606F8013BF7E6269B022B7FF7B1AE79
:1040E000BBF1000F40F029815B460522049903983B
:1040F00000F026FE01460490504601F0CBF800285F
:1041000040F31B8131230E9D089E013506F8013BCB
:10411000DDE9030100F00AFE0135002F7FF4E1AE76
:10412000E3E65046049901F0B5F80028BFF685AEE5
:10413000514600230A2203980E9C00F001FE0C9BBE
:104140008246661E002B7FF415AF189B002B40F3B0
:1041500018829B460E9D7AE601461A46039800F0A7
:10416000C9FF269B0490012B6FDD00230993049A5D
:10417000136902EB8303186900F08CFEC0F1200084
:1041800032E69B4B08930333FFF7EABB069B002BF9
:104190007FF429AEDDE90612C2F31303002B7FF48E
:1041A00022AE944B134033B10B9B01330B930A9B0C
:1041B00001330A930123099A0993002A3FF413AEAD
:1041C000D5E73FF424AEC0F13C03ADE601230C93E8
:1041D000279B0E9A134403F1010B5E46012EB8BFD4
:1041E00001261893172E40F30182012204235B005D
:1041F00003F11400B042114602F10102F7D9039B0A
:10420000D96303E401230C93279B002B38DD9B46E5
:104210001E461893E6E700230C93D9E700230C937E
:10422000F2E70F9B0F96F31A0026099A1A440A9B8D
:1042300009925B440A930B9B1D465B440B9301213F
:10424000039800F077FE0746A5E5069B002B8CD16E
:10425000DDE90601C1F313030A46002BA1D0099042
:1042600085E7DDE904344FF00209CDE91234FFF7A8
:10427000FBBB7FF40CAF19F0010F7FF402AF06E730
:1042800001239B462793FFF7BCBB03D119F0010F15
:104290007FF40BAE5E461BF8013D302BFAD013E6DF
:1042A000119A002A00F09F8003F233430A9A0F9E6E
:1042B0001A440A920B9A15461A440B92BFE731230F
:1042C000089A01351370FFE500F0FE80DDE9040176
:1042D0000E9A494B554205F00F0203EBC203D3E996
:1042E000002303F0EFFA2D11CDE9120100F05D81FA
:1042F00000234FF0020907468846404EEA070AD5D8
:10430000D6E900233846414603F0DCFA012307468C
:10431000884609F101096D1006F10806EED1002B5F
:104320007FF4BDABDDE91278FFF7B9BBC8F101033B
:104330000A900B931090FFF753BB089EB7E4DDF88B
:1043400010A002460B4603F007F903460C46DDE9D0
:1043500006010E9D1A46CDE9043401352346A846D0
:1043600003F022FD40B9DDE90423DDE9060103F095
:1043700011FD18B1F30701D5089A32E43E46B4E5C1
:104380000398796800F0ACFC0546002800F0238112
:104390003B6907F10C0102339A000C3000F0A2FADD
:1043A00001222946039800F0FFFE8046FCE50E9DA1
:1043B0003C46013547466CE5039C3946324620466B
:1043C00000F098FE074652463946204600F0E0FDD0
:1043D00051468246204600F0A9FC0F9B9B1B0F9381
:1043E0003FF4F4ACECE41A9BC3F136035EE700BF84
:1043F000888100080000F07F808200087083000838
:10440000DDE91623DDE9140103F05CFA089BCDE930
:104410000C011C70129B012B00F0C580129F089BA1
:1044200011961F4400227C4B4046494603F04AFA4D
:104430000D46044603F0F6FC814603F0D9F9024626
:104440000B462046294603F085F809F1300906F8A5
:10445000019BBE4280468946E4D1119D0022DDE9E0
:104460000C016E4B03F078F802460B464046494675
:1044700003F0B8FC00286ED1DDE90C230020674969
:1044800003F068F802460B464046494603F08CFCB0
:1044900080B91B9B002BFFF679AC0E9B0E2B3FF7D0
:1044A00075AC5F4B0E9A03EBC203D3E90034CDE940
:1044B000063401E417F8013C3E46302B07F1FF3784
:1044C000F8D0199D013510E54FF00209DDE90478B7
:1044D000FFF7E5BABBF1000F3FF49AAB189C002C34
:1044E0007FF7BBAB0E9B3846013B41460022199338
:1044F000494B03F0E7F902468846174609F10100E7
:1045000003F076F93A46434603F0DCF90022454BC6
:1045100003F022F81294A1F150750446FFF7E0BAB7
:10452000312308F10108FFF763BBB34639230E9D21
:104530003C46089A474601350BF8013BBAE4002394
:104540001F460493DEE50A9B5B440A930B9B1D46C2
:104550005B440B9373E6199B089A03F10108FFF77C
:1045600040BBDDF850A0ACE7DDF850A0DDF858B056
:10457000FFF773BBB9F1390FD7D0002D3FF785ADE9
:1045800085E5269B022B03DC0E9DDDF860B05EE422
:10459000DDF860B00E96A3E5269B022BF8DCDDF873
:1045A00060B00E96F3E4374658E74FF00209DDE9B4
:1045B0001278FFF774BA0025039B29461846DD637D
:1045C00000F08EFB0890D0B9002240F2AF11164BDC
:1045D000164800F05FFB024640F2EF21124B1348F1
:1045E00000F058FB002A3FF740AD50E50021039B47
:1045F000D963FFF70BBA0E4B0893FFF70AB9039B79
:10460000089A4FF0FF3B9A6301232795CDF860B0DD
:104610000C93FFF722BB00BF000024400000E03FE6
:104620008082000800001C408C810008A0810008E6
:104630007C8100082DE9F84306460820894600F0F1
:10464000C7F90546DFF89880304600F0CFF9D8F872
:1046500008305F6827F00307A7F11104A4EB0904F1
:104660002C44B4FBF5F4013C05FB04F4A54208DC42
:104670000021304600F0FCFAD8F808303B4498425C
:1046800005D0304600F0B4F90020BDE8F88330468C
:10469000614200F0EDFA01300FD0124AD8F808302C
:1046A0003F1B47F001075F60136830461B1B136018
:1046B00000F09EF90120BDE8F8830021304600F0AB
:1046C000D7FAD8F80820831A0F2BDADD43F001035C
:1046D0005360054B03491B68C01A0860D1E700BF4F
:1046E00058010020880700206005002000297CD0A8
:1046F000F8B50C46064600F079F954F8043C764FBC
:10470000A4F1080523F001016818D7F808C0426831
:10471000844522F0030200F08380DB07426000EB57
:10472000020C33D454F8084CDCF804302D1B21441F
:10473000AC6807F1080C644503F0010364D0D5F8B8
:104740000CE0C4F80CE0CEF80840002B00F08180AB
:1047500041F001036B600160B1F5007F22D20122BC
:10476000CB0849098A40796801330A437A6057F8CF
:10477000331007EBC302083AC5E9021247F8335079
:10478000CD603046BDE8F84000F032B9DCF80430C6
:10479000DB072BD541F00103B1F5007F44F8043C61
:1047A0000160DCD3B1F5206F4FEA512353D28B095E
:1047B00003F1390003F13802C300F818FB58083838
:1047C000984203D161E09B68984204D05A6822F075
:1047D00003028A42F7D8D868C5E9023085603046BE
:1047E000DD60BDE8F84000F003B97047114407F1FF
:1047F000080C836863453FD0C268DA60936041F07B
:1048000001036B606950A7E7002B5FD10A44D0E930
:104810000213CB60996042F001036B60AA50B0E7CD
:104820000A44D90707D454F8083CED1A1A44D5E9CC
:104830000213CB60996042F001036B60274BBD60AF
:104840001B6893429DD8264B30461968FFF7F2FE4D
:1048500097E71144CDE7142B08D9542B1DD80B0B27
:1048600003F16F0003F16E02C300A6E703F15C00E1
:1048700003F15B02C300A0E741F00103C7E904555F
:10488000C5E902CC6B6069507BE70121921001FA07
:1048900002F279680A437A609EE7B3F5AA7F06D8E8
:1048A000CB0B03F1780003F17702C30085E740F2F8
:1048B0005452934206D88B0C03F17D0003F17C0225
:1048C000C3007AE74FF47E737E2276E741F001035E
:1048D0006B60016055E700BF5801002064050020AF
:1048E00084070020844641EA000313F0030349D102
:1048F000403A23D30B6803604B6843608B68836046
:10490000CB68C3600B6903614B6943618B69836149
:10491000CB69C3610B6A03624B6A43628B6A836231
:10492000CB6AC3620B6B03634B6B43638B6B836319
:10493000CB6BC36340304031403ADBD230320BD3D3
:104940000B6803604B6843608B688360CB68C3600F
:1049500010301031103AF3D20C3205D351F8043B29
:1049600040F8043B043AF9D2043208D0D2071CBF05
:1049700011F8013B00F8013B01D30B88038060462E
:10498000704700BF082A13D38B07B1D010F0030380
:10499000AED0C3F10403D21ADB071CBF11F8013BF0
:1049A00000F8013BA4D331F8023B20F8023B9FE71B
:1049B000043AD9D3013A11F8013B00F8013BF9D28E
:1049C0000B7803704B7843708B7883706046704728
:1049D000082802D14FF48050704708B500F054FF0A
:1049E000162203464FF0FF301A6008BD704700BF23
:1049F000704700BF00207047024A0349034800F097
:104A0000F7BE00BF68050020155A000838000020D6
:104A10000C4B416810B59942044601D000F0FAFFF2
:104A2000A168094B994202D0204600F0F3FFE168EB
:104A3000064B994204D02046BDE8104000F0EABF82
:104A400010BD00BFB8070020200800208808002003
:104A5000002070472DE9F84300250423294C2A49FA
:104A60000822C4F8381104F15C002946DFF89C9054
:104A7000DFF89C80274F284EC4E90335C4E9005570
:104A8000C4E90555A5606566FCF752FF234B082273
:104A9000294604F1C4006367C4E90749C4E90987EA
:104AA000C4E91A55C4E91E55E6622567C4F8CC501E
:104AB000C4F88050FCF73CFF194B2946C4F8DC30A1
:104AC000082204F1680304F59670C4F88430C4E940
:104AD0002298C4E92476C4E93455C4E93855C4F8A9
:104AE000D850C4F83451C4F8E850FCF721FF04F161
:104AF000D003C4E93C98C4E93E76C4F8EC30BDE884
:104B0000F88300BFB8070020F9490008D55A00080B
:104B1000FD5A00083D5B0008615B000809000100C8
:104B200012000200F8B5254B0646D3F83831002BA9
:104B30003CD0234FD7E90134013B04D51DE05A1C7A
:104B400004F1680419D0B4F90C50013B002DF6D1E2
:104B50001C4B08222946C4E90155C4E90455E36009
:104B600065662560A56104F15C00FCF7E1FEC4E91F
:104B70000C55C4E911552046F8BD3D680DB12F46CE
:104B8000D8E74FF4D6713046FEF7BCFA044680B140
:104B900004230560294625460C304FF4D072A060EE
:104BA0006360FCF7C5FE3C602F46C3E7FFF752FF8A
:104BB000BFE70C2338603360DDE700BFB807002093
:104BC000680500200100FFFF436B03B17047044BF1
:104BD000044AD3F838314263002BF7D13AE700BFDB
:104BE000B8070020114A0008704700BF704700BF97
:104BF0000020024A024900F0FBBD00BF680500200A
:104C0000F54900080020024A024900F0F1BD00BF4A
:104C100068050020514A00082DE9F04115469268C8
:104C20002C68FAB107468846083402E01346083477
:104C3000C3B16B685E1E002B6E6013DD54F8046C0C
:104C4000002EF3D033464146384654F8082C00F085
:104C50005FFE431C07D0AA680834921B1346AA6063
:104C6000002BE6D100200023C5E90133BDE8F08127
:104C7000002238B5064D044608462A6003F032F992
:104C8000431C00D038BD2B68002BFBD0236038BDFF
:104C9000F4080020144600B51A460A4B0D461B685E
:104CA00085B0DE6803464CB107490191304607499B
:104CB0000294009500F09AFE00F0ECFD04490C46C9
:104CC000F3E700BF30000020CC810008DC81000841
:104CD000D881000808B513460022FFF7DBFF00BFAC
:104CE00038B5436C05460C464BB153F8240080B1EF
:104CF000026843F824200023C0E9033338BD212291
:104D0000042100F0CFFD034668640028EDD10020A7
:104D100038BD0121284601FA04F56A1D920000F011
:104D2000C1FD0028F3D0C0E90145E4E731B1436C8F
:104D30004A6853F82200086043F82210704700BF09
:104D40002DE9F0414FF0000E0E461C460D69074656
:104D500001F1140001680EF1010E8BB202FB034356
:104D6000090C4FEA134C02FB01CC9BB203EB0C4342
:104D7000754540F8043B4FEA1C44EBDC3CB1B3689A
:104D8000AB4207DD06EB850301355C6135613046DA
:104D9000BDE8F081716838460131FFF7A1FF804618
:104DA000A8B1326906F10C01023292000C30FFF713
:104DB00099FD7B6C726853F82210316043F82260D1
:104DC000464606EB850301355C613561DFE7024647
:104DD000BA21024B0248FFF75DFF00BF8C8100083B
:104DE0000C8200082DE9F8431E460C46264908337C
:104DF000174681FB032C092E4FEAE3730546C3EBEC
:104E00006C0339DD4FF0010C00214FEA4C0C634577
:104E100001F10101F9DC2846FFF762FF014668B3A2
:104E2000089B092F43614FF00103036112DC09273E
:104E30000A34BE420BDDF61B264414F8013B0A225D
:104E40002846303BFFF77CFFB4420146F5D10846C7
:104E5000BDE8F88304F10909C8463C4418F8013B51
:104E60000A222846303BFFF76BFFA0450146F5D1EB
:104E7000A7F108044C44DCE70021CCE70246D3212B
:104E8000024B0348FFF706FF398EE3388C81000898
:104E90000C820008B0F5803F03463ABF10208340E3
:104EA0000020B3F1807F3CBF1B020830B3F1805F6C
:104EB0003CBF1B010430B3F1804F03D3002B06DB52
:104EC000013070479B0003D45B0003D4202070475F
:104ED00002307047033070470368014613F0070241
:104EE00009D0DA0721D498074BBF5B089B08012043
:104EF00002200B60704798B2A0B11046DAB20AB92E
:104F000008301B0A1A0704BF1B0904309A0704BFA4
:104F10009B080230DA0703D45B0800F1010006D0D9
:104F20000B6070471020C340E8E700207047202046
:104F3000704700BF38B5436C04460D464BB1586806
:104F4000B0B102685A60002201234561C0E9032321
:104F500038BD2122042100F0A5FC0346606400282E
:104F6000EDD1002240F24511074B0848FFF792FEB1
:104F70001C220121204600F095FC0028F1D00122DE
:104F80000223C0E90123DEE78C8100080C820008BF
:104F90002DE9F04FD1F8108015690E46A8459246CC
:104FA00085B005DB2A46534645468A4690461E464E
:104FB000DAF80830DAF8041005EB0804A342B8BFA9
:104FC0000131FFF78DFE002800F0898000F1140701
:104FD00007EB840E774505D23B46002243F8042BAD
:104FE0009E45FBD8143606EB88080AF1140946459D
:104FF00009EB850566D2A5EB0A03153B23F00303F5
:105000000AF1150A043355452CBF9B464FF0040B9B
:10501000CDF808E08246AE46039405E0090C2AD19B
:10502000B04507F104074AD956F8041B8DB2002D8C
:10503000F4D0CC463C46002301965CF8040B216872
:1050400086B28AB205FB0622000C090C05FB001192
:105050001A4401EB124192B242EA0142E64544F899
:10506000042B4FEA1143E8D8019E47F80B3056F85D
:10507000041C090CD4D000223B6848461D463C461F
:10508000944602889BB201FB02C202EB154243EA3E
:10509000024344F8043B50F8043B25684FEA134CA4
:1050A000ABB201FB0C33704503EB12434FEA134CD8
:1050B000E7D3B04547F80B3007F10407B4D8DDE972
:1050C00002E45046002C02DC05E0013C03D05EF80F
:1050D000043D002BF9D0046105B0BDE8F08F024615
:1050E0004FF4B171014B0248FFF7D4FD8C810008E9
:1050F0000C82000812F003032DE9F0411446074624
:105100002CD10E46A4101CD03D6C85B3E3074FF0A4
:10511000000806D4641014D02868A8B10546E30737
:10512000F8D52A4631463846FFF732FF36B17B6C58
:10513000716853F82120326043F8216064100646FC
:10514000EAD13046BDE8F0812A4629463846FFF7C5
:105150001FFF28600546C0F80080E0E70F4A013BCA
:1051600052F823200023FFF7EBFD0646CAE7012192
:105170003846FFF7B5FD054640B140F271230122E4
:10518000C0E90423002338640360BFE7024640F20D
:105190004511034B0348FFF77DFD00BF70820008F7
:1051A0008C8100080C8200082DE9F0470C46276925
:1051B000A36807EB62177D1C9D429046064649682E
:1051C0004FEA621904DD5B009D4201F10101FADC46
:1051D0003046FFF785FD002851D0B9F1000F00F1EE
:1051E00014010FDD0B464FF0000C09F105024FEAE8
:1051F000820E00EB820243F804CB9342FBD1AEF166
:1052000014031944226904F1140318F01F0803EB76
:10521000820C2CD08E464FF0000AC8F120091A6883
:1052200002FA08F242EA0A024EF8042B53F8042B61
:105230009C4522FA09FAF2D8ACEB0403153B23F0A3
:105240000303043304F11502944538BF042341F8E5
:1052500003A0BAF1000F00D13D46736C626805618E
:1052600053F82210216043F82240BDE8F08704394A
:1052700053F8042B9C4541F8042FF9D8ECE702467B
:105280004FF4EF71014B0248FFF704FD8C810008D9
:105290000C82000884460B690069C01A15D10CF114
:1052A000140C14310CEB830210B401EB830301E006
:1052B000944508D252F8044D53F8041D8C42F7D09F
:1052C00004D24FF0FF3010BC70477047012010BC73
:1052D000704700BF2DE9F04F14460A6923698846DC
:1052E000D21A002A83B040F0888001F1140604F13C
:1052F000140202EB830206EB830301E09E427FD29D
:1053000053F8045D52F8041D8D42F7D076D323463E
:105310000025444698466168FFF7E2FC002800F04B
:10532000898000F1140949464FF0000C2769D8F82C
:10533000106004F1140B08F1140EC56004F11002A2
:105340000EEB86060BEB870ACDF804B05EF8044B33
:1053500052F8045F1FFA84FBABB2A3EB0B03240CDF
:105360006344C4EB154404EB23449BB243EA044377
:10537000764541F8043B4FEA244CE7D808F1150183
:105380008E4234BF00210121A6EB0806153EB60867
:10539000002906F101024FEA820208BF0422DDF86B
:1053A00004B00BEB0204A2454A4434D91546214609
:1053B000E04651F8046BB3B263444FEA164E0EEB6D
:1053C000234E06EB08039BB243EA0E438A454FEA9D
:1053D0002E4C45F8043BEBD80AF1FF3AAAEB040A3D
:1053E0002AF0030A524423B952F8043D013F002B2E
:1053F000FAD0076103B0BDE8F08F88DA01258AE7AB
:105400000021FFF76DFC70B101220023C0E90423E5
:1054100003B0BDE8F08F00294FEA860608BF0026DA
:1054200009EB0602DFE7024640F23721054B06484A
:10543000FFF730FC024640F24521024B0248FFF7DD
:1054400029FC00BF8C8100080C820008124B0A4620
:105450000B40A3F15073002B03DD002219461046C8
:1054600070475B42B3F1A07F4FEA235106DA4FF455
:10547000002300220B4119461046704714391E299B
:10548000D4BF4FF0004201224FF00003D8BFCA4002
:1054900010461946704700BF0000F07FF8B5046958
:1054A00000F1140202EB840454F8045C261F284621
:1054B000FFF7F0FC0346C0F120000A2B086030DD46
:1054C000B242A3F10B071AD254F8083C1FB3C7F13C
:1054D000200C23FA0CF1BD4045EA0106A4F10805B1
:1054E00046F07F51AA4203FA07F341F4401116D265
:1054F00054F80C2C22FA0CF213431846F8BD0B2B6F
:1055000008D0002305FA07F747F07F51184641F409
:105510004011F8BD002345F07F5141F44011184679
:10552000F8BDB2422CBF002254F8082CC3F10B077F
:1055300003F1150325FA07FC38BFFA4005FA03F317
:105540004CF07F511343184641F44011F8BD00BFA1
:10555000F0B5012183B016461F46FFF7C1FB054693
:10556000002847D0C7F30A54C7F313030CB143F420
:105570008013002E019314D101A8FFF7ADFC012286
:10558000019B20306B612A6114B3089BA4F2334461
:1055900004441C60099BC0F135001860284603B024
:1055A000F0BD68460096FFF797FC019B00B3009999
:1055B000C0F1200203FA02F2C34001930A43002B18
:1055C0006A610CBF01220222AB612A61002CDCD18E
:1055D00005EB8201A0F23243086908990B60FFF7DE
:1055E00059FC099BC0EB42101860284603B0F0BD7F
:1055F000009AE4E7024640F20F31024B0248FFF7FF
:1056000049FB00BF8C8100080C8200082DE9F043A3
:1056100083B0884669468146FFF740FF04460D4641
:10562000404601A9FFF73AFFD9F81030D8F810200A
:10563000A3EB020CDDE900329B1A03EB4C13002BA9
:105640000BDD05EB03573D4602460B462046294637
:1056500002F062FA03B0BDE8F083C3EB033301EB61
:1056600003594946F0E700BF172870B506460ADD22
:10567000002000240749084D22462B4602F022F95B
:10568000013EF9D170BD054B03EBC003D3E9040122
:1056900070BD00BF0000F03F000024407082000891
:1056A00001F1FF3C116902F114034FEA6C1C03EB9A
:1056B00081010CF1010C8B4200EB8C0C16D210B561
:1056C000A0F1040E53F8044B99424EF8044FF9D858
:1056D0008B1A153B23F0030304331844844504D983
:1056E000002340F8043B8445FBD810BD844505D910
:1056F000002340F8043B8445FBD87047704700BF47
:1057000003694A11934200F1140009DA00EB8303A4
:1057100002E053F8042DA2B98342FAD80020704762
:1057200000EB8203F8DD11F01F01F5D010B450F842
:10573000224024FA01F28A40944208D0012010BC91
:1057400070470120704753F8042D002AF6D1834298
:10575000F9D8002010BC70475FFA81FC810744D063
:105760000346511E22B909E09A0709D0013905D331
:105770001846027801336245F6D170470020704721
:10578000184603290CD80029F8D00346014401E04B
:105790008B42F3D0184613F8012B6245F8D17047BD
:1057A00010B50CEB0C24024604EB044402E004396F
:1057B000032915D9104652F8043B6340A3F1013E7A
:1057C0002EEA030313F0803FF1D00346014401E0C9
:1057D0008B4208D0184613F8012B6245F8D110BD52
:1057E00010460029F1D1002010BD1146C9E700BFC5
:1057F0002DE9F8434FF0000980460F461646D6E9DA
:105800000154013D10D4A389012B08D9B4F90E30FD
:10581000013304D021464046B84749EA0009013D1A
:105820006B1C04F16804EED13668002EE7D14846BF
:10583000BDE8F883F03070470048704764060020E8
:10584000004870476406002010B4034CD4F8E440CC
:10585000A44610BC604700BF7405002082B049B167
:105860005AB16BB113780B601278101E18BF01206B
:1058700002B0704701A9002AF3D1104602B0704768
:105880006FF00100F4E700BF014B1868704700BFDC
:1058900030000020062008B500F0D2FB012002F005
:1058A00037FB00BF38B5A1FB021454BBFDF72AFC3F
:1058B000054650B350F8042C22F00302043A242A7F
:1058C00010D8132A13D91B2AC0E9004416D9242A58
:1058D000C0E902440ABFC0E9044400F1100200F12B
:1058E000180205E02146FCF723F8284638BD024699
:1058F00000232846C2E90033936038BD00F1080256
:10590000F6E7FFF7C1FF0C2303600025284638BDEA
:105910002DE9F0471D468F680C46AF4216460B68CE
:1059200036D8B1F90CC01CF4906F0ED13D46184624
:1059300031462A4600F00CFD0020A368DF1B2368D7
:10594000A7602B442360BDE8F0874A69096902EB30
:1059500042025F1A02EBD2726B1C52103B4493421C
:1059600092BF914699461A461CF4806F804611D02A
:105970001146FDF7C7FB824600B33A462169FEF7A0
:10598000B1FFA38923F4906343F08003A38105E072
:105990002F46CCE700F0E8F8824658B10AEB07033F
:1059A000A9EB0707A760C4F810A02F46C4F814900D
:1059B0002360BCE740462169FEF798FE0C22A389CC
:1059C0004FF0FF3043F04003C8F80020A381BAE74E
:1059D0000CB400B583B004AB53F8042B019300F072
:1059E00035FD03B05DF804EB02B070470EB400B5AE
:1059F000074A82B003AB0146106853F8042B0193A9
:105A000000F024FD02B05DF804EB03B0704700BF66
:105A10003000002070B539B106460C4608B1436B22
:105A200083B3B4F90C3013B90025284670BD214664
:105A3000304600F0BFFBE36A054633B13046E1690A
:105A400098470028B8BF4FF0FF35A3891B061CD428
:105A5000216B41B104F14003994202D03046FEF778
:105A600045FE00232363616C21B13046FEF73EFE04
:105A700000236364FFF7B8F80023A381FFF7B6F8AB
:105A8000284670BDFFF7A0F8CBE730462169FEF746
:105A90002DFEDDE7024B01461868FFF7BBBF00BFD4
:105AA0003000002010B4034CD4F8E040A44610BCF1
:105AB000604700BF74050020034649B1FF2A02D8A1
:105AC00001200A7070478A224FF0FF301A60704739
:105AD0000846704710B50C46B1F90E1001F05EFA99
